:100000000C9424010C94B6010C9441010C94410110
:100010000C9441010C949D040C9441010C944101F9
:100020000C9441010C9441010C9441010C94410148
:100030000C9441010C9441010C944A010C9441012F
:100040000C9441010C9441010C9441010C94410128
:100050000C9441010C9441010C9441010C94410118
:100060000C9441010C944101000000000000005F6D
:1000700000000007000700147F147F14242A7F2A41
:10008000122313086462364955225000050300000C
:10009000001C2241000041221C0014083E081408E4
:1000A000083E0808005030000008080808080060F2
:1000B00060000020100804023E5149453E00427F86
:1000C000400042615149462141454B311814127F8D
:1000D0001027454545393C4A494930017109050316
:1000E0003649494936064949291E0036360000007E
:1000F0005636000008142241001414141414004150
:100100002214080201510906324979413E7E11113B
:10011000117E7F494949363E414141227F4141227A
:100120001C7F494949417F090909013E4149497AF2
:100130007F0808087F00417F41002040413F017F48
:10014000081422417F404040407F020C027F7F0420
:1001500008107F3E4141413E7F090909063E415159
:10016000215E7F09192946464949493101017F012C
:10017000013F4040403F1F2040201F3F4038403F4C
:100180006314081463070870080761514945430068
:100190007F41410002040810200041417F00040219
:1001A0000102044040404040000102040020545439
:1001B00054787F48444438384444442038444448C0
:1001C0007F3854545418087E0901020C5252523E92
:1001D0007F0804047800447D40002040443D007FB7
:1001E0001028440000417F40007C041804787C08FB
:1001F00004047838444444387C1414140808141453
:10020000187C7C080404084854545420043F44409B
:10021000203C4040207C1C2040201C3C4030403C86
:1002200044281028440C5050503C4464544C440022
:100230000836410000007F00000041360800100829
:10024000081008000000000011241FBECFEFD8E006
:10025000DEBFCDBF11E0A0E0B1E0E2E7F9E102C00E
:1002600005900D92AA33B107D9F723E0AAE3B1E0D4
:1002700001C01D92A235B207E1F70E9438060C9426
:10028000B70C0C9400009091C00095FFFCCF8093B8
:10029000C60008951F920F920FB60F921124CF92AD
:1002A000DF92EF92FF922F933F934F935F936F9361
:1002B0007F938F939F93AF93BF93EF93FF93C090E0
:1002C0004601D0904701E0904801F09049018FEF3E
:1002D000C81AD80AE80AF80AC0924601D092470123
:1002E000E0924801F0924901C701B60128E833E1E4
:1002F00040E050E00E947D09672B682B692B19F4C0
:1003000081E080934B01C701B60124EF31E040E06A
:1003100050E00E947D09672B682B692B19F481E05E
:1003200080934A01C701B60120ED37E040E050E07C
:100330000E947D09672B682B692B19F481E080935B
:100340005103FF91EF91BF91AF919F918F917F9159
:100350006F915F914F913F912F91FF90EF90DF90C0
:10036000CF900F900FBE0F901F9018951F920F9275
:100370000FB60F9211248F939F9380914401909117
:100380004501019690934501809344019F918F917F
:100390000F900FBE0F901F9018954F925F926F9223
:1003A0007F92AF92BF92CF92DF92EF92FF920F9324
:1003B0001F93CF93DF93CDB7DEB76D970FB6F89449
:1003C000DEBF0FBECDBFEB8AFC8A0D8B1E8B2F8B41
:1003D000388F498F5A8F6B8F7C8F8D8F82E1EBE046
:1003E000F1E0DE01119601900D928A95E1F7E0911E
:1003F0004301EE0FFF0B81E090E08C0F9D1FE80F93
:10040000F91F808185B9E0914301EE0FFF0B81E078
:1004100090E08C0F9D1FE80FF91F8081918190FF64
:1004200004C08BB180688BB903C08BB18F778BB957
:100430008091430184306CF540903F015090400121
:10044000609041017090420186017501E418F50841
:10045000060917092C893D893695279536952795E4
:10046000A90160E070E0E416F5060607170708F436
:100470007BC08F5F80934301440D551D661D771D22
:1004800040933F01509340016093410170934201BA
:100490006BC085304CF540903F015090400160901A
:1004A00041017090420186017501E418F5080609C2
:1004B0001709288D398DA90160E070E0E416F50672
:1004C0000607170708F450C08F5F80934301440D5F
:1004D000551D661D771D40933F0150934001609369
:1004E00041017093420140C0893064F540903F0162
:1004F0005090400160904101709042018601750169
:10050000E418F508060917092E893F8936952795BD
:1005100036952795A90160E070E0E416F506060718
:10052000170710F18F5F80934301440D551D661D21
:10053000771D40933F0150934001609341017093B8
:10054000420112C010924301A0923F01B0924001BB
:10055000C0924101D0924201A0923B01B0923C0175
:10056000C0923D01D0923E0180913A018430ACF5B9
:1005700040903B0150903C0160903D0170903E01E5
:1005800076016501C418D508E608F7084C895D892D
:10059000288D398D240F351F36952795369527954B
:1005A000A90160E070E0C416D506E606F70608F477
:1005B0007EC091E0980F90933A01440D551D661D41
:1005C000771D40933B0150933C0160933D01709334
:1005D0003E018F5C0E9443016AC08830ACF54090B8
:1005E0003B0150903C0160903D0170903E017601CE
:1005F0006501C418D508E608F7084E895F89288D7B
:10060000398D240F351F3695279536952795A901E5
:1006100060E070E0C416D506E606F70608F447C0A9
:1006200091E0980F90933A01440D551D661D771D7A
:1006300040933B0150933C0160933D0170933E0118
:100640008F5C0E94430133C0893064F540903B01C8
:1006500050903C0160903D0170903E017601650133
:10066000C418D508E608F708288D398DA90160E07F
:1006700070E0C416D506E606F706C8F091E0980FBC
:1006800090933A01440D551D661D771D40933B0123
:1006900050933C0160933D0170933E018F5C0E943A
:1006A000430105C010923A0180E30E9443016D9618
:1006B0000FB6F894DEBF0FBECDBFDF91CF911F9173
:1006C0000F91FF90EF90DF90CF90BF90AF907F9011
:1006D0006F905F904F9008958F929F92AF92BF92CC
:1006E000CF92DF92EF92FF920F931F93CF93DF93FE
:1006F000CDB7DEB767970FB6F894DEBF0FBECDBF9C
:10070000FE860F87188B298B3A8B4B8B5C8B6D8BFE
:100710007E8B8F8BEE2011F081E401C08DE4898304
:100720001A822E853F8536952795369527953695DD
:100730002795A5ECB0E20E94BE09929582958F7034
:1007400089279F7089279F938F930DE111E01F9355
:100750000F934E0183E0880E911C9F928F920E940E
:10076000CD09288939893695279536952795369567
:100770002795A5ECB0E20E94BE09929582958F70F4
:1007800089279F7089279F938F931F930F935E01F3
:1007900095E0A90EB11CBF92AF920E94CD092A89A3
:1007A0003B89369527953695279536952795A5EC5F
:1007B000B0E20E94BE09929582958F7089279F7042
:1007C00089279F938F931F930F936E0187E0C80E25
:1007D000D11CDF92CF920E94CD098D898F938C8995
:1007E0008F931F930F937E0199E0E90EF11CFF9206
:1007F000EF920E94CD098F898F938E898F931F93DB
:100800000F93CE010B969F938F930E94CD090E9468
:100810003D0765E080E00E94290861E080E291E008
:100820000E94050865E08EE10E94290861E0CE0182
:1008300001960E9405086FE080E00E94290861E0AF
:1008400085E291E00E9405086FE08EE10E94290890
:1008500061E0C4010E94050861E088E291E00E9425
:10086000050869E180E00E94290861E08AE291E0E0
:100870000E94050869E18EE10E94290861E0C50136
:100880000E94050861E088E291E00E94050863E2A9
:1008900080E00E94290861E08FE291E00E94050853
:1008A00063E28EE10E94290861E0C6010E9405080A
:1008B00061E088E291E00E94050860914C01660FBA
:1008C000862F880F880F680F6B5F8AE20E942908C5
:1008D00061E084E391E00E9405084FE262E082E378
:1008E0000E94160869E184E30E94290862E0C701BA
:1008F0000E94050868E287E30E94290861E086E318
:1009000091E00E9405080E942E080FB6F894DEBF01
:100910000FBECDBF67960FB6F894DEBF0FBECDBF3A
:10092000DF91CF911F910F91FF90EF90DF90CF90CB
:10093000BF90AF909F908F9008951F920F920FB627
:100940000F921124EF92FF920F931F932F933F93D7
:100950004F935F936F937F938F939F93AF93BF93C7
:10096000EF93FF934C993EC080914C01813071F020
:1009700028F08230D1F0833039F134C090910001F9
:1009800081E0911180E0809300012CC080910101F1
:100990009091020181342FE1920720F588519C4FFC
:1009A00090930201809301011DC0809103019091F9
:1009B000040181342FE19207A8F488519C4F909351
:1009C0000401809303010EC08091050190910601FE
:1009D00081342FE1920730F488519C4F90930601A7
:1009E000809305014D993EC080914C01813071F09A
:1009F00028F08230D1F0833039F134C09091000179
:100A000081E0911180E0809300012CC08091010170
:100A100090910201803D27E0920720F1885E93408B
:100A200090930201809301011DC080910301909178
:100A30000401803D27E09207A8F0885E93409093E0
:100A40000401809303010EC080910501909106017D
:100A5000803D27E0920730F0885E93409093060136
:100A6000809305014E990AC080914C01833020F497
:100A70008F5F80934C0102C010924C01489904C0D2
:100A80008BB182608BB903C08BB18D7F8BB9E09045
:100A90000001F090010100910201109103012091E9
:100AA00004013091050140910601509107016091C8
:100AB00008017091090180910A010E946C03FF9165
:100AC000EF91BF91AF919F918F917F916F915F91C6
:100AD0004F913F912F911F910F91FF90EF900F90A9
:100AE0000FBE0F901F901895FC012081222309F45E
:100AF0006CC01082609144017091450110924501D3
:100B000010924401CB01880F991F680F791F660F5F
:100B1000771F660F771FE0E0F1E0708767838081C1
:100B2000882309F452C080E090E00E9476082AE908
:100B300039E945E851E40E94DC080E9447089B011E
:100B4000369527953695279536952795A5ECB0E2ED
:100B50000E94BE09929582958F7089279F70892780
:100B6000BC016F5F7F4F48EE53E0649F9001659F2B
:100B7000300D749F300D1124309302012093010138
:100B80002932334230F028E233E2309302012093DD
:100B9000010148EE53E0849F9001859F300D949FA2
:100BA000300D112488E293E2821B930BE0E0F1E028
:100BB000948383838181928181309D4730F088EED8
:100BC00093E090930201809301010895EF92FF92C8
:100BD0000F931F93CF93DF93EC018881882309F44F
:100BE00040C0209178003091790040E050E06CE9FD
:100BF0007FE881E090E00E949F09285E33403093B7
:100C00000A01209309012D32314018F01092B400EE
:100C10000FC0369B06C08091070190910801892B77
:100C200021F08FEF8093B40003C085E58093B4007A
:100C30001882E0900001F0900101009102011091F2
:100C4000030120910401309105014091060150916A
:100C50000701609108017091090180910A010E94C9
:100C60006C03DF91CF911F910F91FF90EF9008954A
:100C70008FEF84B98AE88AB987B18F7387B985E71E
:100C80008BB988B1806488B98AE08093690093E069
:100C90009DBB84E08093680081E780936D0082E0D3
:100CA00084BD95BD99EF97BD80936E0083E28093DC
:100CB000B00086E08093B10080E88093B40080E4C7
:100CC00080937C0087EE80937A0010927B0081E015
:100CD00080937E000E94E506E0900001F090010103
:100CE000009102011091030120910401309105014E
:100CF000409106015091070160910801709109012E
:100D000080910A010E946C037894A0904601B090F3
:100D10004701C0904801D0904901E0900001F09057
:100D20000101009102011091030120910401309111
:100D300005014091060150910701609108017091F1
:100D4000090180910A010E94CD018BE491E00E948B
:100D500074058AE491E00E94E605D7CF98B19D7FA3
:100D600098B9662329F098B1986098B990E01FC0AF
:100D700098B1977F98B9FACF47E050E0491B5109E5
:100D8000282F30E002C0359527954A95E2F720FFDD
:100D900004C028B1206128B903C028B12F7E28B92A
:100DA00028B1206228B928B12F7D28B99F5F9830DB
:100DB00018F388B1826088B9089560E00E94AE0699
:100DC000089561E00E94AE060895CF93DF9387B146
:100DD000826087B987B1846087B987B1886087B935
:100DE00087B1806187B987B1806287B988B1846033
:100DF00088B988B1826088B983EC99E00197F1F7EE
:100E000000C0000088B18B7F88B98BE594E401971E
:100E1000F1F700C0000088B1846088B988B18D7F87
:100E200088B981E20E94DD0683E10E94DD0686E04A
:100E30000E94DD0682EC0E94DD0680E20E94DD0653
:100E400089E00E94DD0680E80E94DD0680E40E94C1
:100E5000DD06C0E0D0E004C080E00E94E1062196FB
:100E6000C83F91E0D907C0F388E00E94DD068CE01E
:100E70000E94DD06DF91CF91089580E80E94DD0693
:100E800080E40E94DD06109245031092460380E044
:100E900090E005C0FC01E35BFE4F10820196883FA5
:100EA00021E09207B8F30895262F269526952695DA
:100EB00090E034E5239F800D911D1124442379F0A7
:100EC000677021E030E002C0220F331F6A95E2F71D
:100ED000FC01E35BFE4F8081282B2083089567701F
:100EE00021E030E002C0220F331F6A95E2F7FC01D7
:100EF000E35BFE4F20958081282320830895EF92A5
:100F0000FF920F931F93CF93DF93E82EF62E00E00E
:100F100045C02E2D30E020523109802F6F2D0E94C8
:100F20007109F901EE0FFF1FEE0FFF1FE20FF31F14
:100F3000E80FF11DE859FF4FE491812F0E947109DC
:100F4000F0E002C0F595E7958A95E2F7E0FF0AC068
:100F50006091460380914503610F41E0800F0E943C
:100F6000540709C06091460380914503610F40E03A
:100F7000800F0E9454071F5F01C010E0212F30E056
:100F8000CE01880F991F880F991F880F991F8C1BFE
:100F90009D0B281739070CF4BCCF0F5F202F30E0D2
:100FA000CF2DD0E0CE01880F991F880F991F8C0F8D
:100FB0009D1F281739070CF3E5E4F3E08F2D880F08
:100FC000880F8F0D9081890F8F5F8083843570F03B
:100FD00010924503E6E4F3E08F2D880F880F880F09
:100FE000982F9F198081890F8F5F8083809146039E
:100FF000803320F01092450310924603DF91CF9189
:101000001F910F91FF90EF9008951F93CF93DF935F
:10101000EC01162F04C02196612F0E947F07888162
:101020008111F9CFDF91CF911F9108951F93CF9335
:10103000DF93C82F162FD42F06C041E06C2F812FCD
:101040000E945407CF5FDC17C0F7DF91CF911F914B
:10105000089580934503609346030895CF93DF93EB
:1010600080E80E94DD0680E40E94DD06C0E0D0E05A
:1010700007C0FE01E35BFE4F80810E94E1062196DE
:10108000C83F81E0D807A8F3DF91CF9108950E946F
:10109000BB0888F09F5798F0B92F9927B751B0F047
:1010A000E1F0660F771F881F991F1AF0BA95C9F7EC
:1010B00014C0B13091F00E94D508B1E008950C94AD
:1010C000D508672F782F8827B85F39F0B93FCCF360
:1010D000869577956795B395D9F73EF49095809569
:1010E000709561957F4F8F4F9F4F0895E89409C089
:1010F00097FB3EF490958095709561957F4F8F4F4B
:101100009F4F9923A9F0F92F96E9BB279395F69560
:10111000879577956795B795F111F8CFFAF4BB0FDE
:1011200011F460FF1BC06F5F7F4F8F4F9F4F16C042
:10113000882311F096E911C0772321F09EE8872FCC
:10114000762F05C0662371F096E8862F70E060E088
:101150002AF09A95660F771F881FDAF7880F969501
:10116000879597F9089557FD9058440F551F59F0EA
:101170005F3F71F04795880F97FB991F61F09F3F84
:1011800079F087950895121613061406551FF2CFAD
:101190004695F1DF08C0161617061806991FF1CFFD
:1011A00086957105610508940895E894BB27662724
:1011B0007727CB0197F908950E94EF080C946009F6
:1011C0000E94520938F00E94590920F0952311F02D
:1011D0000C9449090C944F0911240C94D6080E94D0
:1011E000B30870F3959FC1F3950F50E0551F629FB0
:1011F000F001729FBB27F00DB11D639FAA27F00D70
:10120000B11DAA1F649F6627B00DA11D661F829F96
:101210002227B00DA11D621F739FB00DA11D621F7B
:10122000839FA00D611D221F749F3327A00D611D98
:10123000231F849F600D211D822F762F6A2F11247A
:101240009F5750409AF0F1F088234AF0EE0FFF1FAD
:10125000BB1F661F771F881F91505040A9F79E3F04
:10126000510580F00C9449090C94D6085F3FE4F3D3
:10127000983ED4F3869577956795B795F795E7955A
:101280009F5FC1F7FE2B880F911D9695879597F963
:10129000089597F99F6780E870E060E008959FEFF8
:1012A00080EC089500240A941616170618060906FD
:1012B000089500240A9412161306140605060895CC
:1012C000092E0394000C11F4882352F0BB0F40F454
:1012D000BF2B11F460FF04C06F5F7F4F8F4F9F4F94
:1012E0000895991B79E004C0991F961708F0961B82
:1012F000881F7A95C9F780950895A1E21A2EAA1B36
:10130000BB1BFD010DC0AA1FBB1FEE1FFF1FA217B5
:10131000B307E407F50720F0A21BB30BE40BF50BB2
:10132000661F771F881F991F1A9469F7609570953B
:10133000809590959B01AC01BD01CF010895052ECC
:1013400097FB1EF400940E94B60957FD07D00E9437
:101350007D0907FC03D04EF40C94B60950954095D6
:10136000309521953F4F4F4F5F4F08959095809551
:10137000709561957F4F8F4F9F4F0895A29FB00149
:10138000B39FC001A39F700D811D1124911DB29FB9
:10139000700D811D1124911D0895AEE0B0E0E3EDC4
:1013A000F9E00C948E0C0D891E8986E08C831A83DB
:1013B00009838FEF9FE79E838D83AE01475E5F4F6A
:1013C0006F89788DCE0101960E94EF09EF81F88533
:1013D000E00FF11F10822E96E4E00C94AA0CABE013
:1013E000B0E0E5EFF9E00C94800C6C017B018A0120
:1013F000FC0117821682838181FFCCC1CE01019648
:101400003C01F6019381F70193FD859193FF819152
:101410007F01882309F4BAC1853239F493FD85919F
:1014200093FF81917F01853229F4B60190E00E94FB
:10143000E60BE7CF912C212C312CFFE1F315D8F0EE
:101440008B3279F038F4803279F08332A1F4232D95
:1014500020611DC08D3261F0803369F4232D21603D
:1014600016C0832D8260382EE32DE4603E2E2AC004
:10147000F32DF8601DC037FC2DC020ED280F2A3059
:1014800040F08E32B9F436FC81C1232D2064322E17
:1014900019C036FE06C08AE0989E200D1124922EB7
:1014A00011C0EAE02E9E200D1124222EF32DF062B1
:1014B0003F2E08C08C3621F4832D8068382E02C060
:1014C000883641F4F70193FD859193FF81917F0167
:1014D0008111B3CF982F9F7D9554933028F40C5FE2
:1014E0001F4F9FE399830DC0833631F0833771F02E
:1014F000833509F059C021C0F801808189830E5FCE
:101500001F4F88248394912C530113C02801F2E0CB
:101510004F0E511CF801A080B18036FE03C0692D2A
:1015200070E002C06FEF7FEFC5010E94DB0B4C0142
:101530008201F32DFF773F2E16C0280122E0420ED4
:10154000511CF801A080B18036FE03C0692D70E007
:1015500002C06FEF7FEFC5010E94D00B4C01F32D4D
:10156000F0683F2E820133FC1BC0822D90E088166C
:101570009906B0F4B60180E290E00E94E60B2A944E
:10158000F4CFF50137FC859137FE81915F01B601FB
:1015900090E00E94E60B21102A9421E0821A910823
:1015A0008114910471F7E8C0843611F0893641F551
:1015B000F80137FE07C060817181828193810C5FE1
:1015C0001F4F08C060817181072E000C880B990B9A
:1015D0000E5F1F4FF32DFF763F2E97FF09C09095AA
:1015E0008095709561957F4F8F4F9F4FF0683F2E8C
:1015F0002AE030E0A3010E94220C882E861845C004
:10160000853731F4232D2F7EB22E2AE030E025C01D
:10161000932D997FB92E8F36C1F018F4883579F063
:10162000B5C0803719F0883721F0B0C0E92FE061EC
:10163000BE2EB4FE0DC0FB2DF460BF2E09C034FEDB
:101640000AC0292F2660B22E06C028E030E005C06F
:1016500020E130E002C020E132E0F801B7FE07C02F
:1016600060817181828193810C5F1F4F06C0608110
:10167000718180E090E00E5F1F4FA3010E94220C59
:10168000882E8618FB2DFF773F2E36FE0DC0232DAA
:101690002E7FA22E891458F434FE0BC032FC09C0F0
:1016A000832D8E7EA82E05C0B82CA32C03C0B82C89
:1016B00001C0B92CA4FE0FC0FE01E80DF11D808110
:1016C000803321F49A2D997EA92E09C0A2FE06C06E
:1016D000B394B39404C08A2D867809F0B394A3FC24
:1016E00011C0A0FE06C0B21488F4280C922C9B18DE
:1016F0000EC0B21460F4B60180E290E00E94E60BE6
:10170000B394F7CFB21418F42B1802C0982C212CE4
:10171000A4FE10C0B60180E390E00E94E60BA2FE9A
:1017200017C0A1FC03C088E790E002C088E590E004
:10173000B6010CC08A2D867859F0A1FE02C08BE25A
:1017400001C080E2A7FC8DE2B60190E00E94E60BAA
:10175000891438F4B60180E390E00E94E60B9A9475
:10176000F7CF8A94F301E80DF11D8081B60190E076
:101770000E94E60B8110F5CF222009F442CEB6017B
:1017800080E290E00E94E60B2A94F6CFF601868173
:10179000978102C08FEF9FEF2B96E2E10C949C0C97
:1017A000FC010590615070400110D8F7809590952C
:1017B0008E0F9F1F0895FC01615070400190011031
:1017C000D8F7809590958E0F9F1F08950F931F93C4
:1017D000CF93DF93FB01238121FD03C08FEF9FEFA8
:1017E0002CC022FF16C046815781248135814217C3
:1017F000530744F4A081B1819D012F5F3F4F318396
:1018000020838C93268137812F5F3F4F3783268338
:1018100014C08B01EC01FB010084F185E02D0995DA
:10182000892BE1F6D80116968D919C911797019618
:1018300017969C938E931697CE01DF91CF911F91AF
:101840000F910895FA01AA27283051F1203181F132
:10185000E8946F936E7F6E5F7F4F8F4F9F4FAF4FB8
:10186000B1E03ED0B4E03CD0670F781F891F9A1FCB
:10187000A11D680F791F8A1F911DA11D6A0F711D7F
:10188000811D911DA11D20D009F468943F912AE08B
:10189000269F11243019305D3193DEF6CF01089573
:1018A000462F4770405D4193B3E00FD0C9F7F6CFA4
:1018B000462F4F70405D4A3318F0495D31FD40526C
:1018C000419302D0A9F7EACFB4E0A6959795879502
:1018D00077956795BA95C9F70097610571050895E1
:1018E0009B01AC010A2E069457954795379527958D
:1018F000BA95C9F7620F731F841F951FA01D089525
:101900002F923F924F925F926F927F928F929F920F
:10191000AF92BF92CF92DF92EF92FF920F931F93FD
:10192000CF93DF93CDB7DEB7CA1BDB0B0FB6F894AE
:10193000DEBF0FBECDBF09942A88398848885F84EE
:101940006E847D848C849B84AA84B984C884DF805F
:10195000EE80FD800C811B81AA81B981CE0FD11D43
:101960000FB6F894DEBF0FBECDBFED010895F89419
:02197000FFCFA7
:10197200008813B80BE803000000000F0007000303
:101982000001000001F00070003000100025750019
:101992004D6F646F00542E567300542E566D0054D2
:0A19A2002E416D003C006C757800CA
:00000001FF
